{
  "contractName": "SimpleAuction",
  "abi": [
    {
      "inputs": [
        {
          "internalType": "uint256",
          "name": "biddingTime",
          "type": "uint256"
        },
        {
          "internalType": "address payable",
          "name": "beneficiaryAddress",
          "type": "address"
        },
        {
          "internalType": "uint256",
          "name": "reservePrice",
          "type": "uint256"
        },
        {
          "internalType": "uint256",
          "name": "certificateHash",
          "type": "uint256"
        }
      ],
      "stateMutability": "nonpayable",
      "type": "constructor"
    },
    {
      "inputs": [],
      "name": "AuctionAlreadyEnded",
      "type": "error"
    },
    {
      "inputs": [],
      "name": "AuctionEndAlreadyCalled",
      "type": "error"
    },
    {
      "inputs": [],
      "name": "AuctionNotYetEnded",
      "type": "error"
    },
    {
      "inputs": [
        {
          "internalType": "uint256",
          "name": "highestBid",
          "type": "uint256"
        }
      ],
      "name": "BidNotHighEnough",
      "type": "error"
    },
    {
      "anonymous": false,
      "inputs": [
        {
          "indexed": false,
          "internalType": "address",
          "name": "winner",
          "type": "address"
        },
        {
          "indexed": false,
          "internalType": "uint256",
          "name": "amount",
          "type": "uint256"
        }
      ],
      "name": "AuctionEnded",
      "type": "event"
    },
    {
      "anonymous": false,
      "inputs": [
        {
          "indexed": false,
          "internalType": "address",
          "name": "bidder",
          "type": "address"
        },
        {
          "indexed": false,
          "internalType": "uint256",
          "name": "amount",
          "type": "uint256"
        }
      ],
      "name": "HighestBidIncreased",
      "type": "event"
    },
    {
      "inputs": [],
      "name": "auctionEndTime",
      "outputs": [
        {
          "internalType": "uint256",
          "name": "",
          "type": "uint256"
        }
      ],
      "stateMutability": "view",
      "type": "function",
      "constant": true
    },
    {
      "inputs": [],
      "name": "beneficiary",
      "outputs": [
        {
          "internalType": "address payable",
          "name": "",
          "type": "address"
        }
      ],
      "stateMutability": "view",
      "type": "function",
      "constant": true
    },
    {
      "inputs": [],
      "name": "ended",
      "outputs": [
        {
          "internalType": "bool",
          "name": "",
          "type": "bool"
        }
      ],
      "stateMutability": "view",
      "type": "function",
      "constant": true
    },
    {
      "inputs": [],
      "name": "highestBid",
      "outputs": [
        {
          "internalType": "uint256",
          "name": "",
          "type": "uint256"
        }
      ],
      "stateMutability": "view",
      "type": "function",
      "constant": true
    },
    {
      "inputs": [],
      "name": "highestBidder",
      "outputs": [
        {
          "internalType": "address",
          "name": "",
          "type": "address"
        }
      ],
      "stateMutability": "view",
      "type": "function",
      "constant": true
    },
    {
      "inputs": [],
      "name": "reserveBid",
      "outputs": [
        {
          "internalType": "uint256",
          "name": "",
          "type": "uint256"
        }
      ],
      "stateMutability": "view",
      "type": "function",
      "constant": true
    },
    {
      "inputs": [],
      "name": "startTime",
      "outputs": [
        {
          "internalType": "uint256",
          "name": "",
          "type": "uint256"
        }
      ],
      "stateMutability": "view",
      "type": "function",
      "constant": true
    },
    {
      "inputs": [],
      "name": "getCurrentTime",
      "outputs": [
        {
          "internalType": "uint256",
          "name": "",
          "type": "uint256"
        }
      ],
      "stateMutability": "view",
      "type": "function",
      "constant": true
    },
    {
      "inputs": [],
      "name": "bid",
      "outputs": [],
      "stateMutability": "payable",
      "type": "function",
      "payable": true
    },
    {
      "inputs": [],
      "name": "withdraw",
      "outputs": [
        {
          "internalType": "bool",
          "name": "",
          "type": "bool"
        }
      ],
      "stateMutability": "nonpayable",
      "type": "function"
    },
    {
      "inputs": [
        {
          "internalType": "address",
          "name": "bidder",
          "type": "address"
        }
      ],
      "name": "getPendingReturn",
      "outputs": [
        {
          "internalType": "uint256",
          "name": "",
          "type": "uint256"
        }
      ],
      "stateMutability": "view",
      "type": "function",
      "constant": true
    },
    {
      "inputs": [],
      "name": "auctionEnd",
      "outputs": [],
      "stateMutability": "nonpayable",
      "type": "function"
    },
    {
      "inputs": [],
      "name": "recruit",
      "outputs": [
        {
          "internalType": "bytes32",
          "name": "",
          "type": "bytes32"
        }
      ],
      "stateMutability": "view",
      "type": "function",
      "constant": true
    }
  ],
  "bytecode": "0x60806040523480156200001157600080fd5b5060405162000d8338038062000d838339818101604052810190620000379190620000d8565b826000806101000a81548173ffffffffffffffffffffffffffffffffffffffff021916908373ffffffffffffffffffffffffffffffffffffffff1602179055504260028190555083426200008c919062000144565b60018190555081600581905550806006819055505050505062000242565b600081519050620000bb816200020e565b92915050565b600081519050620000d28162000228565b92915050565b60008060008060808587031215620000ef57600080fd5b6000620000ff87828801620000c1565b94505060206200011287828801620000aa565b93505060406200012587828801620000c1565b92505060606200013887828801620000c1565b91505092959194509250565b60006200015182620001d5565b91506200015e83620001d5565b9250827fffffffffffffffffffffffffffffffffffffffffffffffffffffffffffffffff03821115620001965762000195620001df565b5b828201905092915050565b6000620001ae82620001b5565b9050919050565b600073ffffffffffffffffffffffffffffffffffffffff82169050919050565b6000819050919050565b7f4e487b7100000000000000000000000000000000000000000000000000000000600052601160045260246000fd5b6200021981620001a1565b81146200022557600080fd5b50565b6200023381620001d5565b81146200023f57600080fd5b50565b610b3180620002526000396000f3fe6080604052600436106100c25760003560e01c80634b449cba1161007f57806391f901571161005957806391f9015714610215578063bcac91b014610240578063c4884dc81461026b578063d57bde79146102a8576100c2565b80634b449cba14610194578063689f8c5c146101bf57806378e97925146101ea576100c2565b806312fa6feb146100c75780631998aeef146100f257806329cb924d146100fc5780632a24f46c1461012757806338af3eed1461013e5780633ccfd60b14610169575b600080fd5b3480156100d357600080fd5b506100dc6102d3565b6040516100e99190610990565b60405180910390f35b6100fa6102e6565b005b34801561010857600080fd5b50610111610480565b60405161011e91906109c6565b60405180910390f35b34801561013357600080fd5b5061013c610488565b005b34801561014a57600080fd5b506101536105f9565b604051610160919061094c565b60405180910390f35b34801561017557600080fd5b5061017e61061d565b60405161018b9190610990565b60405180910390f35b3480156101a057600080fd5b506101a9610741565b6040516101b691906109c6565b60405180910390f35b3480156101cb57600080fd5b506101d4610747565b6040516101e191906109ab565b60405180910390f35b3480156101f657600080fd5b506101ff6107e9565b60405161020c91906109c6565b60405180910390f35b34801561022157600080fd5b5061022a6107ef565b6040516102379190610931565b60405180910390f35b34801561024c57600080fd5b50610255610815565b60405161026291906109c6565b60405180910390f35b34801561027757600080fd5b50610292600480360381019061028d919061087f565b61081b565b60405161029f91906109c6565b60405180910390f35b3480156102b457600080fd5b506102bd610864565b6040516102ca91906109c6565b60405180910390f35b600860009054906101000a900460ff1681565b600154421115610322576040517fd02e774d00000000000000000000000000000000000000000000000000000000815260040160405180910390fd5b60045434111580610334575060055434105b15610378576004546040517f4e12c1bb00000000000000000000000000000000000000000000000000000000815260040161036f91906109c6565b60405180910390fd5b6000600454146103fd5760045460076000600360009054906101000a900473ffffffffffffffffffffffffffffffffffffffff1673ffffffffffffffffffffffffffffffffffffffff1673ffffffffffffffffffffffffffffffffffffffff16815260200190815260200160002060008282546103f591906109ec565b925050819055505b33600360006101000a81548173ffffffffffffffffffffffffffffffffffffffff021916908373ffffffffffffffffffffffffffffffffffffffff160217905550346004819055507ff4757a49b326036464bec6fe419a4ae38c8a02ce3e68bf0809674f6aab8ad3003334604051610476929190610967565b60405180910390a1565b600042905090565b6001544210156104c4576040517f44cee29000000000000000000000000000000000000000000000000000000000815260040160405180910390fd5b600860009054906101000a900460ff161561050b576040517f61cfdcf800000000000000000000000000000000000000000000000000000000815260040160405180910390fd5b6001600860006101000a81548160ff0219169083151502179055507fdaec4582d5d9595688c8c98545fdd1c696d41c6aeaeb636737e84ed2f5c00eda600360009054906101000a900473ffffffffffffffffffffffffffffffffffffffff1660045460405161057b929190610967565b60405180910390a16000600454146105f75760008054906101000a900473ffffffffffffffffffffffffffffffffffffffff1673ffffffffffffffffffffffffffffffffffffffff166108fc6004549081150290604051600060405180830381858888f193505050501580156105f5573d6000803e3d6000fd5b505b565b60008054906101000a900473ffffffffffffffffffffffffffffffffffffffff1681565b600080600760003373ffffffffffffffffffffffffffffffffffffffff1673ffffffffffffffffffffffffffffffffffffffff1681526020019081526020016000205490506000811115610738576000600760003373ffffffffffffffffffffffffffffffffffffffff1673ffffffffffffffffffffffffffffffffffffffff168152602001908152602001600020819055503373ffffffffffffffffffffffffffffffffffffffff166108fc829081150290604051600060405180830381858888f193505050506107375780600760003373ffffffffffffffffffffffffffffffffffffffff1673ffffffffffffffffffffffffffffffffffffffff16815260200190815260200160002081905550600091505061073e565b5b60019150505b90565b60015481565b6000600860009054906101000a900460ff1661076257600080fd5b60006004541161077157600080fd5b3373ffffffffffffffffffffffffffffffffffffffff16600360009054906101000a900473ffffffffffffffffffffffffffffffffffffffff1673ffffffffffffffffffffffffffffffffffffffff16146107cb57600080fd5b6000366040516107dc929190610918565b6040518091039020905090565b60025481565b600360009054906101000a900473ffffffffffffffffffffffffffffffffffffffff1681565b60055481565b6000600760008373ffffffffffffffffffffffffffffffffffffffff1673ffffffffffffffffffffffffffffffffffffffff168152602001908152602001600020549050919050565b60045481565b60008135905061087981610ae4565b92915050565b60006020828403121561089157600080fd5b600061089f8482850161086a565b91505092915050565b6108b181610a54565b82525050565b6108c081610a42565b82525050565b6108cf81610a66565b82525050565b6108de81610a72565b82525050565b60006108f083856109e1565b93506108fd838584610aa6565b82840190509392505050565b61091281610a9c565b82525050565b60006109258284866108e4565b91508190509392505050565b600060208201905061094660008301846108b7565b92915050565b600060208201905061096160008301846108a8565b92915050565b600060408201905061097c60008301856108b7565b6109896020830184610909565b9392505050565b60006020820190506109a560008301846108c6565b92915050565b60006020820190506109c060008301846108d5565b92915050565b60006020820190506109db6000830184610909565b92915050565b600081905092915050565b60006109f782610a9c565b9150610a0283610a9c565b9250827fffffffffffffffffffffffffffffffffffffffffffffffffffffffffffffffff03821115610a3757610a36610ab5565b5b828201905092915050565b6000610a4d82610a7c565b9050919050565b6000610a5f82610a7c565b9050919050565b60008115159050919050565b6000819050919050565b600073ffffffffffffffffffffffffffffffffffffffff82169050919050565b6000819050919050565b82818337600083830152505050565b7f4e487b7100000000000000000000000000000000000000000000000000000000600052601160045260246000fd5b610aed81610a42565b8114610af857600080fd5b5056fea2646970667358221220ca15148dac5a3e1c14ff31e9dd40d3b010c0371a7501c5105f0f3281a529c99364736f6c63430008040033",
  "immutableReferences": {},
  "source": "// SPDX-License-Identifier: GPL-3.0\r\npragma solidity ^0.8.4;\r\ncontract SimpleAuction {\r\n    // Parameters of the auction. Times are either\r\n    // absolute unix timestamps (seconds since 1970-01-01)\r\n    // or time periods in seconds.\r\n    address payable public beneficiary;\r\n    uint public auctionEndTime;\r\n    uint public startTime;\r\n\r\n    // Current state of the auction.\r\n    address public highestBidder;\r\n    uint public highestBid;\r\n    uint public reserveBid;\r\n\r\n    uint private certificate;\r\n    // Allowed withdrawals of previous bids\r\n    mapping(address => uint) pendingReturns;\r\n\r\n    // Set to true at the end, disallows any change.\r\n    // By default initialized to `false`.\r\n    bool public ended;\r\n\r\n    // Events that will be emitted on changes.\r\n    event HighestBidIncreased(address bidder, uint amount);\r\n    event AuctionEnded(address winner, uint amount);\r\n\r\n    // Errors that describe failures.\r\n\r\n    // The triple-slash comments are so-called natspec\r\n    // comments. They will be shown when the user\r\n    // is asked to confirm a transaction or\r\n    // when an error is displayed.\r\n\r\n    /// The auction has already ended.\r\n    error AuctionAlreadyEnded();\r\n    /// There is already a higher or equal bid.\r\n    error BidNotHighEnough(uint highestBid);\r\n    /// The auction has not ended yet.\r\n    error AuctionNotYetEnded();\r\n    /// The function auctionEnd has already been called.\r\n    error AuctionEndAlreadyCalled();\r\n\r\n    /// Create a simple auction with `biddingTime`\r\n    /// seconds bidding time on behalf of the\r\n    /// beneficiary address `beneficiaryAddress`.\r\n    constructor(\r\n        uint biddingTime,\r\n        address payable beneficiaryAddress,\r\n        uint reservePrice,\r\n        uint certificateHash\r\n    ) {\r\n        beneficiary = beneficiaryAddress;\r\n        startTime = block.timestamp;\r\n        auctionEndTime = block.timestamp + biddingTime;\r\n        reserveBid = reservePrice;\r\n        certificate = certificateHash;\r\n    }\r\n    //\r\n    function getCurrentTime() external view returns (uint) {\r\n        return block.timestamp;\r\n    }\r\n    \r\n    /// Bid on the auction with the value sent\r\n    /// together with this transaction.\r\n    /// The value will only be refunded if the\r\n    /// auction is not won.\r\n    function bid() external payable {\r\n        // No arguments are necessary, all\r\n        // information is already part of\r\n        // the transaction. The keyword payable\r\n        // is required for the function to\r\n        // be able to receive Ether.\r\n\r\n        // Revert the call if the bidding\r\n        // period is over.\r\n        if (block.timestamp > auctionEndTime)\r\n            revert AuctionAlreadyEnded();\r\n\r\n        // If the bid is not higher, send the\r\n        // money back (the revert statement\r\n        // will revert all changes in this\r\n        // function execution including\r\n        // it having received the money).\r\n        if (msg.value <= highestBid || msg.value < reserveBid)\r\n            revert BidNotHighEnough(highestBid);\r\n\r\n        if (highestBid != 0) {\r\n            // Sending back the money by simply using\r\n            // highestBidder.send(highestBid) is a security risk\r\n            // because it could execute an untrusted contract.\r\n            // It is always safer to let the recipients\r\n            // withdraw their money themselves.\r\n            pendingReturns[highestBidder] += highestBid;\r\n        }\r\n        highestBidder = msg.sender;\r\n        highestBid = msg.value;\r\n        emit HighestBidIncreased(msg.sender, msg.value);\r\n    }\r\n\r\n    /// Withdraw a bid that was overbid.\r\n    function withdraw() external returns (bool) {\r\n        uint amount = pendingReturns[msg.sender];\r\n        if (amount > 0) {\r\n            // It is important to set this to zero because the recipient\r\n            // can call this function again as part of the receiving call\r\n            // before `send` returns.\r\n            pendingReturns[msg.sender] = 0;\r\n\r\n            if (!payable(msg.sender).send(amount)) {\r\n                // No need to call throw here, just reset the amount owing\r\n                pendingReturns[msg.sender] = amount;\r\n                return false;\r\n            }\r\n        }\r\n        return true;\r\n    }\r\n\r\n    function getPendingReturn(address bidder) external view returns(uint) {\r\n        return pendingReturns[bidder];\r\n    }\r\n\r\n    /// End the auction and send the highest bid\r\n    /// to the beneficiary.\r\n    function auctionEnd() external {\r\n        // It is a good guideline to structure functions that interact\r\n        // with other contracts (i.e. they call functions or send Ether)\r\n        // into three phases:\r\n        // 1. checking conditions\r\n        // 2. performing actions (potentially changing conditions)\r\n        // 3. interacting with other contracts\r\n        // If these phases are mixed up, the other contract could call\r\n        // back into the current contract and modify the state or cause\r\n        // effects (ether payout) to be performed multiple times.\r\n        // If functions called internally include interaction with external\r\n        // contracts, they also have to be considered interaction with\r\n        // external contracts.\r\n\r\n        // 1. Conditions\r\n        if (block.timestamp < auctionEndTime)\r\n            revert AuctionNotYetEnded();\r\n        if (ended)\r\n            revert AuctionEndAlreadyCalled();\r\n\r\n        // 2. Effects\r\n        ended = true;\r\n        emit AuctionEnded(highestBidder, highestBid);\r\n\r\n        // 3. Interaction\r\n        if (highestBid != 0) {\r\n            beneficiary.transfer(highestBid);\r\n        }\r\n    }\r\n\r\n    function recruit() external view returns(bytes32) {\r\n        require(ended);\r\n        require(highestBid > 0);\r\n        require(highestBidder == msg.sender);\r\n\r\n    // datahash\r\n        return keccak256(msg.data);\r\n    }\r\n}",
  "sourcePath": "C:\\Users\\Sxj\\Desktop\\Umi\\bitcoin\\sss\\contracts\\SimpleAuction.sol",
  "compiler": {
    "name": "solc",
    "version": "0.8.4+commit.c7e474f2.Emscripten.clang"
  },
  "schemaVersion": "3.4.3",
  "updatedAt": "2021-10-30T12:36:56.402Z",
  "networkType": "ethereum",
  "devdoc": {
    "kind": "dev",
    "methods": {},
    "version": 1
  },
  "userdoc": {
    "errors": {
      "AuctionAlreadyEnded()": [
        {
          "notice": "The auction has already ended."
        }
      ],
      "AuctionEndAlreadyCalled()": [
        {
          "notice": "The function auctionEnd has already been called."
        }
      ],
      "AuctionNotYetEnded()": [
        {
          "notice": "The auction has not ended yet."
        }
      ],
      "BidNotHighEnough(uint256)": [
        {
          "notice": "There is already a higher or equal bid."
        }
      ]
    },
    "kind": "user",
    "methods": {
      "auctionEnd()": {
        "notice": "End the auction and send the highest bid to the beneficiary."
      },
      "bid()": {
        "notice": "Bid on the auction with the value sent together with this transaction. The value will only be refunded if the auction is not won."
      },
      "constructor": {
        "notice": "Create a simple auction with `biddingTime` seconds bidding time on behalf of the beneficiary address `beneficiaryAddress`."
      },
      "withdraw()": {
        "notice": "Withdraw a bid that was overbid."
      }
    },
    "version": 1
  }
}